:100000000C94D3080C94F0080C94F0080C94F008AD
:100010000C94F0080C94F0080C94F0080C94F00880
:100020000C94F0080C94F0080C94F0080C94F00870
:100030000C94F0080C94F0080C94F0080C94F00860
:100040000C94F0080C94F0080C94F0080C94F00850
:100050000C94F0080C94F0080C94F0080C94F00840
:100060000C94F0080C94F0084D1DA11D531D611D4A
:10007000631D691D6C1D721D991D7A1D801D821DD9
:10008000881D8B1D911D991DAA01000000006010A4
:100090000000000000000000000060220B48454CFA
:1000A000502056494557455200000300000002E029
:1000B00083000200000002012020020203C006A00B
:1000C0006380020009000201642E0202044006A0BF
:1000D0006356D82063A083D4020001F006A06370A9
:1000E00004E0832004E0834004E0833E02009E7E1F
:1000F000C8008372020005FFC8008374C820639E95
:1001000083420203686EC103C014130E0224002848
:1001100010FB020000D2020163CB0202001206A013
:10012000635604E0833E1045C024000206A06370BD
:10013000810313EF0224FC6880C414060224039890
:100140006103C8048342C10304C0C043C0A083420A
:1001500006A06356C020833E130A06006003110701
:1001600002800397150402017F0006A0634002008D
:100170000398020163A30202002806A06356C02070
:1001800083400201202006A06340C0030220979212
:100190003820639AC084022297923C02058038205E
:1001A000639C0601C8018340C00102017E0006A0D5
:1001B000634006A062C402800520160604E083C4E2
:1001C00004E0837A04200000028061201A020220E9
:1001D000E00002802020131A02802E2013170280D4
:1001E0004220131702802C2013140280452013177D
:1001F00002805820131102804620131E02804E20D8
:10020000132F0280512016D5046062EA022303985E
:1002100010090223FC6810060223002810030223A1
:10022000FFD810000283686E14030203686E108CFE
:100230008103128AC0C4108802000398020163DDA2
:100240000202002806A06356020003A102018320D7
:100250000202001C06A06244020068E6C800833E59
:10026000C160833E13A680C51401C143C2050206C6
:10027000832004C2D035131BD076130D8205131CC6
:100280000582028060001A020220E000904013F212
:100290006142058510EC6142C805833E04C6C1C5B4
:1002A000022797923DA0639C6147C0C510BBD05602
:1002B00013F2020568E510DB0200039802016405F1
:1002C0000202002806A063560460612AC24BC140A6
:1002D000C181C1C2C00502017F0006A0634006A023
:1002E00062C40280082013180280032013150280C4
:1002F0000320131D02800D201326C08213F00280FC
:1003000061201A020220E000DD80C040C00506A086
:1003100063400585060210DE81C213E10606C005B2
:100320000201202006A063400605058210D3C00705
:10033000600261406180C00502012020C08706A0E4
:100340006380C08710C7D5A063A2045902E083E090
:1003500004C0C800837C06A0000ED020837C20202F
:10036000639816F402E0830002002020D0208375F9
:10037000045B02008320020163240202001CCC31D2
:10038000064216FD04C002012020020203C006A09E
:100390006380D82063A183D4020001E006A06370CB
:1003A0000200071706A063700460832002E083E068
:1003B00004E0600004E0700004E060000B80C020F6
:1003C000600013FD046060200260400006C0D80099
:1003D0008C0206C0D8008C02D8018C00045B02603D
:1003E000400006C0D8008C0206C0D8008C02D8316C
:1003F0008C00060216FC045BD82083018C0202608C
:100400008000D8008C02045BD82083018C0202603B
:100410004000D8008C02D8018C00060216FC045B58
:100420002000001700280398F0E000205B202E2C0D
:10043000207061676520204558206C696E6520201A
:10044000464E2066696E64202020512071756974C3
:10045000205D204E6F2048656C70205465787420B4
:10046000466F756E64205B2046696E643A202020DA
:10047000202020202020202020202020202020207C
:1004800020202020202020202020205D20205B20F4
:1004900046696E643A202A2A2054657874204E6F8B
:1004A0007420466F756E64202A2A20202020202088
:1004B0002020205D2000000000000000000000104F
:1004C000101010001000002828280000000000284C
:1004D0007C28287C28000038543018543800004408
:1004E0004C18306444000020502054483400000868
:1004F000102000000000000810101010080000205C
:100500001010101020000044287C28440000001027
:10051000107C1010000000000000003010200000CF
:10052000007C0000000000000000003030000004EB
:1005300008102040000000384444444438000010B3
:100540003010101038000038440810207C000038AB
:1005500044180444380000081828487C0800007833
:100560004078044438000038407844443800007C27
:100570000408102020000038443844443800003873
:1005800044443C047800000030300030300000006B
:1005900030300030102000001020402010000000FB
:1005A000007C007C000000001008040810000038E7
:1005B0004408100010000038445458403C000038F3
:1005C00044447C4444000078447844447800003833
:1005D0004440404438000078444444447800007C5F
:1005E000407840407C00007C40784040400000382B
:1005F00044404C4438000044447C444444000038A7
:1006000010101010380000040404044438000044A2
:100610004850704844000040404040407C00004446
:100620006C544444440000446454544C4400003826
:100630004444444438000078444478404000003842
:100640004444544C3C00007844447848440000380A
:10065000443008443800007C101010101000004492
:1006600044444444380000444444442810000044B6
:1006700044445454280000442810102844000044E6
:10068000442810101000007C081020407C00003826
:1006900020202020380000004020100804000038EE
:1006A0000808080838000010284400000000000076
:1006B000000000007C000020100800000000000086
:1006C000003848483C00002020382424380000002E
:1006D000001C20201C000004041C24241C0000001A
:1006E000001C28301C00000C1038101010000000F6
:1006F000001C241C0438002020382424240000106E
:1007000000301010380000080008080848300020A9
:100710002024382824000030101010103800000069
:1007200000785454540000000038242424000000B1
:10073000001824241800000000382438202000006D
:10074000001C241C040400000028342020000000A9
:10075000001C300C38000010103810100C00000085
:10076000002424241C00000000442828100000005D
:1007700000445454280000000024181824000000ED
:100780000024241C04380000003C08103C00000C2D
:1007900010102010100C001010100010101000602D
:1007A0001010081010600606060606060606007CF5
:1007B0007C7C7C7C7C00FCFCFCE0E0E0FCFCF8F851
:1007C000F8000000C0C0E0E0E00000ECECEC00004D
:1007D000000000BCFCFC000000000080C4EC000035
:1007E000000000F8FCFC0C0C0C0C0CECECEC8C9CF1
:1007F000BCB8B8B8B8B8F8FCFC000000000C3C3C31
:10080000BC3838383CBCF8FCFC0C0C0CFCFC0C1C58
:10081000BCB8B8B8B838F8FCFC0C0C0C0C0C383C64
:10082000BCBCBCB8B8B80C1CBCFCFCECEC0C8080AC
:100830008484848484807CFCFCC0C0C0FCFCC0E058
:10084000F4747474F4F07CFCFCC0C0C0FCFCC0E028
:10085000F0707070F0F0FCE0E0E0E0E0E0E0C0009C
:10086000000000000000ECECECECECECECEC808028
:10087000808080808080ECECECECECECE4E080802C
:10088000808080FCFCF8ECECECECECECECECB8B828
:10089000B8B8B8BC9C8C0C0C0C0C0CFCFCF8BCB8AC
:1008A000B8B8B8B83838F83C1C0C0C0C0C0C3838FC
:1008B000B8B8B8BC9C8C0C0C0C0C0CFCFCF8B8B890
:1008C000B8B8B8B838380C0C0C0C0C0C0C0C808078
:1008D0008084848480807C0000C0C0FCFC7CF0703C
:1008E000707474F4E0C07C0000C0C0FCFC7CF0704C
:1008F000707070F0E0C02080818283848586878854
:10090000898A8B8C8D8E8F909192932020204865C0
:100910006C70205669657765722020202020209415
:1009200095969798999A9B9C9D9E9FA0A1A2A3A4FF
:10093000A5A6A72020202843292032303137205275
:100940004220202020202020202020202020202085
:100950002020202020202020202020202020202097
:100960002020202020202020202020202020AA011C
:100970000000000060100000000000000000000007
:1009800060210C46494E414C47524F4D2039390F9A
:1009900070999999999999999999999999999999F0
:1009A0009960120300000002E083E0C28B06A0639E
:1009B0001A04E083DE020003800201170002020035
:1009C0001206A0645E02000900020164F40202043F
:1009D0001006A0642A04C0020164770202003E06E9
:1009E000A0642A02000C8002030007020164D50201
:1009F00002001006A0642A02200080060316F602F8
:100A0000000392020164E50202000E06A0642A02BD
:100A1000000060020164B50202002006A0642A0200
:100A20000000A5020163000202000B06A0642A0474
:100A3000C30206830002086A0CC148C015131DC119
:100A4000030584020783000604130804C1D0770954
:100A500031A048C0059C7013FE1BF6C006C04610AE
:100A6000030600D4500601060418FBD42083E705D2
:100A70008302250020058610E1D5A062F80200114E
:100A80000002018300C083058206A0642AC8038394
:100A9000D0160B020000A30201630B0202000F0636
:100AA000A0642A0300000210FFC02083DE130304A9
:100AB000E083DE100D04E083D204C002010012A026
:100AC00043020200133C0202203130C80083DA02E4
:100AD0000500A202066A0C0207001302001100A022
:100AE0002083D2020183000202001306A0644402A4
:100AF00008830004C4D138912062F8160AC0870226
:100B0000000300020120200A52600206A0645E1069
:100B10001A0934A106C00502012054604706C10627
:100B2000A064140585C00502012E2006A0641405EA
:100B3000C5C005C0440202001406A0642A022500B4
:100B40001D060716D702000038C06083DA06A064CD
:100B50001405C006C106A0641402012020C0208331
:100B6000DE130202013F20020002FE06A06414C848
:100B70000783DC02009E7EC8008372020005FFC866
:100B800000837404C0C800837C06A0000E0200002D
:100B900020D020837C202062F616F4D020837502BA
:100BA000800520160604E083C404E0837A04200054
:100BB00000028001201603056083DE10CE02802033
:100BC00020134402802C20133502802E20133E0275
:100BD0008031201AD7028039201246028061201A03
:100BE000020220E000028041201ACC028053201B28
:100BF000C90220BF000980C06083DCA040028100E0
:100C00001314C004C502208300D150093502256A9F
:100C100000C02083DE130C020083C4CC35CC35CC5D
:100C200035CC35020562FCCC35CC35020583C404D5
:100C300060632EC02083D213A50220FFEDC800837D
:100C4000D2682062FA83DA0460613EC02083D20257
:100C5000200013880083D01495C80083D2A8206296
:100C6000FA83DA0460613EC1400220CF00098002AD
:100C70000100133840880283D01484C80283D2D87C
:100C80000583DA0460613E2000FFFF0100FF02607F
:100C900022534F5254494E47202E2E2E4E4F20495C
:100CA0004D4147455320464F554E44C24B0200101C
:100CB0000002018300020200E006A0642A04590237
:100CC00000830002016358020200BCCC31064216C8
:100CD000FD020042FE0202000CC1A5000AC265002E
:100CE0000802088C020460830002040038D1350435
:100CF000E060000B7404D4060216F704E0600006FE
:100D000003D06083E7024103000261800006C0D681
:100D10000006C0D600D8018C0002040A0002076059
:100D200000C0B71603060416FC10EA06A083A6004E
:100D3000402020030006A083A68043170000200661
:100D4000A083A6004B00000120C2CA0200100006CA
:100D5000C0D60006C0D6000204839E020583E0CD03
:100D600074CD74CD74CD74C1C60204830002050035
:100D7000E002088800D2491603020700601025022D
:100D800049000F13221024DD18060516FD0457C074
:100D90003BD60006C0D600C07BC0BBD8018C000685
:100DA0000216FC045B0260400006C0D8008C0206FC
:100DB000C0D8008C02D8018C00045B0260400006A1
:100DC000C0D8008C0206C0D8008C02D8318C000636
:100DD0000216FC045B02403FFF06C0D8008C0206EE
:100DE000C0D8008C02DC608800060216FC045BD8C8
:100DF0002083E18C0202604000D8008C02D8018C74
:100E000000060216FC045B002020606162636465DA
:100E1000666768696A6B6C6D6E20202843292032F2
:100E2000303137205242202020206F70717273744D
:100E300075767778797A7B7C7D5E7F20203C2C20CC
:100E40002D2F2D202E3E90909191A0A0A1A1B0B069
:100E5000B1B1C0C0C1C1D0D0B1B1D1D1E0E0E1E108
:100E6000F0F0F1F19090FFFFFFFFFFFFFFFF0000A8
:100E700000000000000063631B1BCDCDF4F42828A4
:100E8000E5E59A9A00000000000000000000101044
:100E90001010001000002424000000000000247E38
:100EA00024247E240000083E283E0A3E0800626496
:100EB0000810264600001028102A443A00000810A6
:100EC00000000000000004080808080400002010CA
:100ED0001010102000000014083E08140000000844
:100EE000083E08080000000000000808100000008C
:100EF000003E000000000000000018180000000282
:100F00000408102000003C464A52623C00001828A9
:100F10000808083E00003C42023C407E00003C4283
:100F20000C02423C0000081828487E0800007E4061
:100F30007C02423C00003C407C42423C00007E027D
:100F40000408101000003C423C42423C00003C427D
:100F5000423E023C000000001000001000000010A3
:100F60000000101020000004081008040000000019
:100F70003E003E00000000100804081000003C4243
:100F80000408000800003C4A565E403C00003C4219
:100F9000427E424200007C427C42427C00003C4255
:100FA0004040423C000078444242447800007E4089
:100FB0007C40407E00007E407C40404000003C423F
:100FC000404E423C000042427E42424200003E0807
:100FD0000808083E000002020242423C0000444869
:100FE00070484442000040404040407E000042665D
:100FF0005A42424200004262524A464200003C428B
:101000004242423C00007C42427C404000003C4264
:1010100042524A3C00007C42427C444200003C4038
:101020003C02423C0000FE10101010100000424232
:101030004242423C000042424242241800004242E6
:1010400042425A24000042241818244200008244DC
:101050002810101000007E040810207E00000E08EA
:101060000808080E0000004020100804000070105E
:1010700010101070000000009296A2A2C70000009D
:1010800000000000FFFFFFFFE0E0E0FFFFEEEEEEFC
:1010900000000E0E0E0000000000EFFFFF00000039
:1010A000000083C7EF0000000000EEFEFEE3E7EF64
:1010B000EEEEEEEEEEF8FCFE000000000EFFFFFF8D
:1010C000E0E0E0FFFF83C7EFEEEEEEEECEF8FCFED1
:1010D0000E0E0E0E0EE0F1FBFFFFEEEEE0E0E0E1A3
:1010E000E1E1E1E1E07FFFFFC1C1C1FFFF078FDF69
:1010F000DCDCDCDFCFF0F8FC1C1C1CFCFCFFE0E0BF
:10110000E0E0E0E0E00E0E0E0E0E0E0E0EE0E0E06F
:10111000E0E0E0E0E0EEEEEEEEEEEFE7E30E0E0EE6
:101120000E0EFEFEEEEEEEEEEEEEEFE7E30E0E0E30
:101130000E0EFEFCF8FFE3E1E0E0E0E0E08ECEEE34
:10114000EEEEEFE7E30E0E0E0E0EFEFCF8E0E0E032
:10115000E0E0E0E0E0E0E0E0E1E1E1E0E07F0101AB
:10116000C1C1FFFF7FC7C0C0DCDCDF8F07FC1C1CD8
:101170001C1CFCF8F00000000000494900000000C1
:101180001804080458006060000006060000000013
:10119000C3C30000000006060000606000181800CD
:1011A00000000018180011241FBECFEFD8E0DEBFEA
:1011B000CDBF11E0A0E0B1E0E2E3F5E402C00590AC
:1011C0000D92A235B107D9F726E0A2E5B1E001C042
:1011D0001D92AD34B207E1F70E9411220C949722C0
:1011E0000C940000A8EEB1E0ECE3F2E08D918111E7
:1011F00002C0108208958E32E1F38193F7CFCF932E
:10120000DF9320915C01E22FF0E0E35AFE4F2223AE
:1012100019F02FE220833196CCE3D2E0AF01485F92
:101220005F4F2991DF011196211104C02EE2208326
:10123000EC0106C0E417F507C9F32083FD01F1CFE7
:101240008991882311F08D93FBCF1C92CF01DF9100
:10125000CF9108958F929F92AF92BF92EF92FF929B
:101260000F931F93CF93DF9300D0CDB7DEB7162F28
:1012700020915C0130E0235A3E4FF9012F5F3F4F30
:1012800090819E32D1F7319780838DE591E00E9465
:10129000C113882319F083E00E94AC0F17FD10647E
:1012A0000E943A0F812F0E944A0F0E94690F0E94EC
:1012B000980F8090560190905701A0905801B090DF
:1012C000590100E010E081149104A104B10481F1FE
:1012D00078012FEFE21AF20A0E94A10FF801E35BF6
:1012E000FD4F8083E11484E0F80631F021E082169E
:1012F0009104A104B104A1F4AE014F5F5F4FB701A7
:101300008DE492E00E940415882319F083E00E9486
:10131000AC0F89819A818115944048F0E12CF12C21
:1013200081E0881A9108A108B1088701CCCF870114
:10133000012B49F0AE014F5F5F4F60E070E080E04D
:1013400090E00E9404150E94A50F0F900F90DF916E
:10135000CF911F910F91FF90EF90BF90AF909F9012
:101360008F900895FF920F931F93CF93DF93209157
:101370005C0130E0233731050CF04DC09C01F901D0
:10138000DF012191222351F02E32D1F79D012E5FF2
:101390003F4F11964C914E3291F33DC0C92FD82F3B
:1013A000082F192F88E0F82EF8018081882311F08A
:1013B0000F5F1F4F0E94440FFA94F110F5CF8FEF8B
:1013C0000E94440F81E00E94440F80E60E94440F77
:1013D00080E20E94440F8FE20E94440F80E20E944C
:1013E000440F0D2F1C2FC2E1F80181918F0188233A
:1013F00021F00E94440FC150F7CFCC2329F080E2A6
:101400000E94440FC150F9CF80915B018F5F8093A0
:101410005B0181E001C080E0DF91CF911F910F91CE
:10142000FF900895CF92DF92EF92FF92CF93DF93D8
:1014300000D0CDB7DEB7C12CD12C7601AE014F5F05
:101440005F4F60E070E280E090E00E943414811110
:1014500009C089819A81C80ED91EE11CF11C811531
:10146000904260F7C701B6010F900F90DF91CF91C6
:10147000FF90EF90DF90CF9008950E94300F109270
:101480005D0110925C018FE097E20197F1F700C0D7
:10149000000085E092E00E94AA12882319F081E002
:1014A0000C94AC0F08955F926F927F928F929F92EF
:1014B000AF92BF92CF92DF92EF92FF920F931F9362
:1014C000CF93DF9310925B0110925A0181E00E944A
:1014D000A60F0E943A0F81E80E944A0FCEE6D9E09B
:1014E000FE0184910E94440F2196F9E0C139DF0783
:1014F000B9F780E00E944A0FE0915C01F0E0E35A06
:10150000FE4F10826DE571E085EF91E00E942A1791
:10151000882319F082E00E94AC0FC1E9D9E0FE01F6
:1015200084910E94440F2196F1E1C53ADF07B9F793
:10153000CCEED1E080E00E94440F2197D9F7809152
:101540005C01882321F08CE391E00E94B209712CA8
:1015500088E090E69C012D5432404901A12CE8E33B
:10156000BE2E80915B018B3A78F46FED71E085EFD0
:1015700091E00E946D17882319F082E00E94AC0F61
:101580008091E801811102C0C0E23BC08091E70177
:10159000982F967031F784FF06C088EE91E00E9484
:1015A000B209182F24C009EE11E0F80181918823B7
:1015B00011F08F01FACFC801885E9140059714F4AD
:1015C00010E015C0E8018A918235A9F5F80132973B
:1015D0008081863581F531978081813461F531973D
:1015E00080818E3241F5F501099525C011E0809189
:1015F0005B01810F80935B01112309F4B2CF7394D7
:10160000B0CF80E00E94440FC150D9F70E94690F0B
:1016100080E00E94A60F20915A01872D90E0820F52
:10162000911D019731F481E090915C01992309F4B7
:10163000AFC180E0ADC18881843449F5F8013297AB
:1016400080818C3421F531978081803501F5319787
:1016500080818E32E1F481E00E94A60F8FE391E059
:101660000E94C113882319F082E00E94AC0F0E94EF
:101670008E1A0E94EC21F82E80E00E94A60FFF2017
:1016800019F082E08F0D01C080E00E94AC0F8881CC
:101690008E3409F095CFF80132978081893409F0B2
:1016A0008FCF31978081823409F08ACF3197808142
:1016B0008E3209F085CF4091DF015091E0016091B9
:1016C000E1017091E20141305105F0E16F077105D0
:1016D00008F076CF05501109F8018081843431F487
:1016E000411550426105710531F46ACF873419F410
:1016F000E12CF12C03C0E12CFF24FA948FED91E052
:101700000E941014882319F083E00E94AC0FC12CB2
:10171000D12C4DED51E06CE070E08DE492E00E9440
:10172000341481114DCF8091DD019091DE01089735
:1017300008F446CFF801208180914D02273451F002
:101740008A3A09F03DCF909153029056903208F4B6
:101750006AC036CF8A3A09F066C090914E0297FF70
:1017600062C080915002873419F000E0D12C03C090
:1017700000E2DD24DA944DED51E060E170E08DE4AB
:1017800092E00E94341481111BCF8091DD01909171
:10179000DE01409708F414CF0E94F20880915502B0
:1017A000811108C080915802882309F409CFC8E547
:1017B000D2E002C0C5E5D2E0C80DD91D18E068EE40
:1017C000E62E61E0F62EF70180818E3221F0FFEFE8
:1017D000EF1AFF0A01C080E00E94440F115099F7F0
:1017E0008D2D0E94440F802F0E94440F8D2F0E9448
:1017F000440F8C2F0E94440F08EE11E0C4E1F80161
:1018000081918F018E3221F00E94440FC150F7CF99
:101810008AE20E94440FC23008F4E8CE80E20E94BF
:10182000440FC150F8CFC0915302D0E0DC2FCC2739
:1018300090915402C90FD11D2734B9F48A3A21F48A
:10184000C115F0E6DF0740F420EED21AB60180E0C1
:1018500090E00E9404165DCF80915702803628F0F8
:1018600080915A018F5F80935A0180915002823596
:1018700039F0883541F0873441F46894E5F805C0C3
:101880006894E4F802C030E3E32A0F2D10E02097BB
:1018900009F4ADCED0905B01D11002C00E94F208D5
:1018A000D056BE0180E090E02091DF013091E00150
:1018B0004091E1015091E201261737074807590787
:1018C00008F495CEEAEAED1508F491CE0E940416CC
:1018D00081118DCE4DED51E06AE170E08DE492E032
:1018E0000E943414C0914D02D0E0DC2FCC278091AF
:1018F0004E02C80FD11D38E0632E48EEC42E41E0E1
:10190000D42EF60180818E3221F0FFEFCF1ADF0A4C
:1019100001C080E00E94440F6A946110F2CF802FD2
:101920000E94440F8E2D0E94440F80914F020E940E
:10193000440F809150020E94440F509051028091B8
:101940005202823271F4E52DF0E0EF5AFD4F8081B2
:10195000823239F45A945A9493E5C92E92E0D92EE2
:1019600004C082E5C82E82E0D82E612C651438F4BC
:10197000F601808196012F5F3F4F690101C080E22F
:101980000E94440F639434E16312F0CF1F5F7FCF56
:10199000DF91CF911F910F91FF90EF90DF90CF904B
:1019A000BF90AF909F908F907F906F905F900895C1
:1019B000CF93C82F0E946A0F4C2F6CE08CE392E00B
:1019C0000E94740F0E94910FE0914502EF70E15068
:1019D000E33028F4F0E0E75CFE4F808101C080E056
:1019E000CF910895CF93DF9380915C01E82FF0E0D1
:1019F000E35AFE4F90913C029E3271F490913D0269
:101A00009E3251F43197815019F410925C0117C045
:101A100090819F32B9F711C0882331F09FE2908303
:101A20008F5F80935C01319680915C01ACE3B2E002
:101A300098E0980F2D91211107C080935C011082CE
:101A400081E0DF91CF910895981731F03196EF0141
:101A5000219728838F5FEECF90935C01F0CF6F9238
:101A60007F928F929F92AF92BF92CF92DF92EF922E
:101A7000FF920F931F93CF93DF9381E00E94A60FF5
:101A80000E943A0F8AE491E00E94FF088C01709056
:101A90004502109252011092530180E80E944A0FB1
:101AA000E8018A91873499F58DE591E00E94C11390
:101AB000882321F0812C912C54010EC00E94120A1F
:101AC0004B015C01672B682B692BA1F3872D80727A
:101AD00075FC888180935201B501A4014150504E9C
:101AE0006F4F7F4F3DE076956795579547953A95AF
:101AF000D1F781E090E001C0880F4A95EAF781585C
:101B0000809354010E944A0F83E4888303C0812C90
:101B1000912C540180E00E944A0F00E010E0C12C9B
:101B2000D12C7601872D8071682E8DE591E00E9481
:101B3000C113811124C00E94120A6115710581052B
:101B40009105E9F0262D662029F0011102C02881B7
:101B500001C020E020935301C60ED71EE81EF91ED7
:101B6000888191E0980F988390E0801B910B8334DB
:101B7000910529F40F5F1F4F02301105B1F6D7010F
:101B8000C6018150904EAF4FBF4F2DE0B695A7953F
:101B9000979587952A95D1F7882399F0880F8150DA
:101BA00020E0869511F02F5FFCCF81E090E001C02E
:101BB000880F2A95EAF78150809355010E944A0FB9
:101BC00006C089E90E94440F89E90E94440FC80CAD
:101BD000D91CEA1CFB1CC0925601D0925701E0921E
:101BE0005801F0925901CD28CE28CF2819F484E06D
:101BF0000E94AC0F872D82958F700E945B0F0E9410
:101C0000690F80E0DF91CF911F910F91FF90EF90CE
:101C1000DF90CF90BF90AF909F908F907F906F900C
:101C20000C94A60FAF92BF92CF92DF92EF92FF92E9
:101C30000F931F93CF93DF9300D0CDB7DEB781E032
:101C40000E94A60F0E943A0F1A8219828EE491E038
:101C50000E94FF088DE591E00E94C113882329F0BE
:101C600080E00E94A60F80E0CDC080E80E944A0F6D
:101C700080E00E944A0F08E810E0F80184910E9479
:101C8000440F0F5F1F4FF9E00E361F07B1F780E0DA
:101C900090E0E12CF12C10E037E1B32E42E0A42ECD
:101CA00029813A8182179307A9F4AE014F5F5F4FF4
:101CB00060E074E08DE492E00E943414882319F00F
:101CC00083E00E94AC0F89819A81892B09F46CC052
:101CD00080E090E06C012FEFC21AD20AFC01E35BB6
:101CE000FD4F00810A3009F489C00D3009F486C027
:101CF00082E0A8122BC0E1E0CE16D10419F40E3315
:101D000009F044C080ED800F8A3038F4F0E1BF9EC6
:101D1000000D112420EDB22E17C08FEB800F8630FE
:101D200038F420E1B29E000D112499ECB92E0CC0BC
:101D30008FE9800F863010F0C601B2CF80E1B89EE7
:101D4000000D112489EAB82EB00EF6CFE1E0AE12F4
:101D50001DC0112369F004C080E20E94440F1F5F80
:101D60001832D0F30A3021F410E0AA24A394E4CF6F
:101D70000D30D1F380E20E94440FFFEFEF1AFF0A0B
:101D800011E023E9E216F10418F00EC0112391F3DB
:101D9000802F0E94440F1F5F173221F480E20E94BF
:101DA000440F10E0A12CC8CF163228F480E20E9424
:101DB000440F1F5FF9CF8FE70E94440F80E20E941B
:101DC000440F80E00E94440F80E00E94440F87E0AF
:101DD0000E94440F8B2D0E94440F0E94690F80E0E7
:101DE0000E94A60F0E946A0F40E061E08DE492E03D
:101DF0000E94740F0E94910F81E004C0112309F426
:101E0000B4CFAECF0F900F90DF91CF911F910F9174
:101E1000FF90EF90DF90CF90BF90AF90089581E05A
:101E20000E94A60F80915301811107C08091520139
:101E3000811103C082E00E94AC0F8091520188237F
:101E400021F0609154010E942A0980915301882356
:101E500021F0609155010E942A0980E00C94A60FA0
:101E600082E084B915B88FE187B988B98FEF8AB954
:101E70001BB808953B9A8FE188B982E18A95F1F702
:101E800000C08FEF8AB908958BB942984398439A5E
:101E9000429A08958BB98EE088B982E18A95F1F76C
:101EA00000C04298429A00C08FE188B982E18A95C9
:101EB000F1F700C008959EE198B98BB982E18A9547
:101EC000F1F700C08FE188B982E18A95F1F700C08F
:101ED000089508953B981BB81AB884E088B982E148
:101EE0008A95F1F700C008953399FECF411102C0E1
:101EF000FC0114C0E0E0F1E021912223C9F3339BFF
:101F0000FECF39B13399FECF2317B1F3EFCF339B17
:101F1000FECF89B181933399FECF61506111F7CF24
:101F200008958FE188B982E18A95F1F700C008959C
:101F30001BB81AB88FE088B982E18A95F1F700C022
:101F4000089589B14298429A08950895882311F01E
:101F5000299A089529980895D82FC0E0CD17C1F087
:101F6000299A2FE78AE196E0215080409040E1F7DE
:101F700000C0000080E00E94A60F2FE78AE196E0F3
:101F8000215080409040E1F700C00000CF5FE6CFD5
:101F90002FEF85EA9EE0215080409040E1F700C09D
:101FA0000000DBCF0F931F93E0912F02F0913002DE
:101FB0009B01AC0122503109410951098681978169
:101FC000A085B1850297A109B109281739074A07E9
:101FD0005B0768F4A281B0E00E947D220289138928
:101FE00024893589600F711F821F931F03C060E031
:101FF00070E0CB011F910F9108950F931F93E09113
:102000002F02F09130022081233049F4FC014489F1
:10201000558960E070E0BA015527442703C040E0CD
:1020200050E0BA01FC01828D938DA0E0B0E08C01FC
:102030009D01042B152B262B372BC901B8011F91AD
:102040000F9108950F931F93CF93DF93DC01E091DD
:102050002F02F091300211961C921E9214966D91EF
:102060007D918D919C911797613071058105910546
:1020700061F106811781208531856017710782071C
:10208000930718F5611571058105910539F42081D3
:10209000233021F46685778580899189ED016887F1
:1020A00079878A879B87611571058105910519F0EC
:1020B0000E94D20F04C066857785808991896C87DC
:1020C0007D878E879F8780E001C081E0DF91CF917F
:1020D0001F910F9108954F925F926F927F92AF92EE
:1020E000BF92CF92DF92EF92FF920F931F93CF9305
:1020F000DF9300D000D0CDB7DEB762307105810527
:10210000910508F4AAC0A0902F02B0903002F5010A
:10211000C680D780E084F1846C157D058E059F050F
:1021200008F09BC06B017C018081823009F452C0B1
:10213000833009F46BC0813009F08FC026015694BA
:1021400047944C0C5D1C92013170452C55244694EB
:10215000612C712C4285538564857585440D551D10
:10216000661D771D2F3FF1E03F0729F002E010E0E8
:10217000CE0101961BC001E010E02FEF31E0CE014F
:1021800001960E94B419811168C0F50142855385FA
:10219000648575854F5F5F4F6F4F7F4F440D551DB1
:1021A000661D771D20E030E0CE0102960E94B41932
:1021B000811153C089819A81C0FE07C0BC01E4E04F
:1021C00076956795EA95E1F702C0BC017F7080E0E3
:1021D00090E047C096013327220F331F77276F2DDA
:1021E0005E2D4D2DF50182859385A485B585480F1B
:1021F000591F6A1F7B1F02E010E0CE0101960E946A
:10220000B41981112AC069817A81E1CF96012F77B3
:102210003327220F331F220F331F97E0F694E794E2
:10222000D794C7949A95D1F7F50142855385648573
:1022300075854C0D5D1D6E1D7F1D04E010E0CE0107
:1022400001960E94B419811108C089819A81AB81DD
:10225000BC81BC01CD019F7004C061E070E080E0F2
:1022600090E00F900F900F900F90DF91CF911F9102
:102270000F91FF90EF90DF90CF90BF90AF907F9045
:102280006F905F904F900895CF92DF92EF92FF9200
:102290000F931F93CF93DF93EC01088119810F5F98
:1022A0001F4F11F483E05BC04C855D856E857F8593
:1022B0004115510561057105A9F3C8018F70992772
:1022C000892B09F047C0E0902F02F09030024F5F59
:1022D0005F4F6F4F7F4F4C875D876E877F87688525
:1022E00079858A859B85F7016115710581059105C1
:1022F00031F48481958108171907A0F62BC022813B
:1023000030E0A901415051099801E4E03695279544
:10231000EA95E1F724233523232BE1F40E946B1087
:102320006230710581059105C8F0F701C680D7803C
:10233000E084F1846C157D058E059F0508F0B2CF11
:10234000688779878A879B870E94D20F6C877D87F1
:102350008E879F871983088380E001C081E0DF9129
:10236000CF911F910F91FF90EF90DF90CF90089544
:10237000CF92DF92EF92FF920F931F93CF93DF9351
:10238000EC016A017B0102E010E02EEF31E00E94D7
:10239000B419811126C08881998185359A4A19F529
:1023A00026E330E0B701A601CE010E94B4198111E5
:1023B00007C0888199818634914411F480E016C069
:1023C00002E010E022E530E0B701A601CE010E9454
:1023D000B41981110AC0888199818634914429F405
:1023E000EDCF83E003C082E001C081E0DF91CF91B7
:1023F0001F910F91FF90EF90DF90CF900895AF92D3
:10240000BF92CF92DF92EF92FF920F931F93CF93E1
:10241000DF93EC016B015A011C821D821E821F8218
:10242000FA018081803218F020E2E22E53C0CE0102
:102430000E942210F82EF601108280C080E090E009
:1024400028E031E0390FD501A90FB11D9C919132DF
:1024500008F04BC0A30EB11C81E0913208F080E07F
:102460008387CE010E942210F82E811167C0288137
:1024700039812F70332795E0220F331F9A95E1F7AA
:102480004C855D856E857F8500E210E0C6010E9467
:10249000B419811147C0F6018081882309F445C031
:1024A000838583FD37C00A811B819601D801B8015D
:1024B000655F7F4F6A177B0739F5F80193859111A6
:1024C0003DC084FF32C0C6010E94FD0F6C837D8336
:1024D0008E839F83EA81FB81DF01CF010B96A817D2
:1024E000B90709F4ABCFED92FACF9F3209F4B2CF1E
:1024F0009E32F1F0821708F0ADCFDF01A80FB11DB9
:102500009C938F5F932F9DCFF90141919F019D91E6
:10251000491781F2CE010E944411882309F4A7CF04
:10252000F82E0CC0FF24F39409C083E0F82E06C0F7
:10253000283009F08FCF88E02BE0E4CF8F2DDF919A
:10254000CF911F910F91FF90EF90DF90CF90BF90B0
:10255000AF9008952F923F924F925F926F927F9229
:102560008F929F92AF92BF92CF92DF92EF92FF92A3
:102570000F931F93CF93DF93CDB7DEB7A4970FB61A
:10258000F894DEBF0FBECDBF1C0110923002109236
:102590002F020E94FE1880FDA3C040E050E0BA0167
:1025A000CE0101960E94B8118130F9F400E110E0EB
:1025B0002EEB31E040E050E0BA01CE0101960E94DE
:1025C000B419882311F081E0C3C08D81811102C04C
:1025D00086E0BEC049845A846B847C84B301A20126
:1025E000CE0101960E94B81103C0412C512C32013A
:1025F000833049F38111ECCF04E210E02DE030E0AC
:10260000B301A201CE0101960E94B4198111DBCF62
:102610002A853B8540E050E02115310541055105F3
:1026200021F4288D398D4A8D5B8DAC81B0E00E94FC
:102630007D224B015C014A815B8160E070E0440EC9
:10264000551E661E771EF101428653866486758686
:1026500029812283CD80DE80D582C4828F819885B6
:10266000A0E0B0E00097A105B10521F48C899D8917
:10267000AE89BF8934E0D694C7943A95E1F7E12C4E
:10268000F12C841B950BA60BB70B88199909AA0985
:10269000BB09BC01CD016C197D098E099F0930E091
:1026A00040E050E00E943622DA01C9010296A11DE5
:1026B000B11DF10186839783A087B187BA01A90173
:1026C000465F5F40610971094F3F5F4E61057105CB
:1026D000C0F1873F2FEF9207A105B10558F002C066
:1026E00082E036C083E0F101808388A199A1AAA18C
:1026F000BBA10FC0873F9F40A105B10508F068CF7F
:1027000081E0F1018083D501C401840D951DA61DD2
:10271000B71D86879787A08BB18BC40CD51CE61C90
:10272000F71CC80CD91CEA1CFB1CF101C28AD38A15
:10273000E48AF58A11823092300220922F0280E0E2
:1027400007C0873F9F4FA105B10560F682E0D9CF52
:10275000A4960FB6F894DEBF0FBECDBFDF91CF9128
:102760001F910F91FF90EF90DF90CF90BF90AF90AF
:102770009F908F907F906F905F904F903F902F90A1
:1027800008950F931F93CF93DF93CDB7DEB7EC97E8
:102790000FB6F894DEBF0FBECDBF00912F0210918F
:1027A00030020115110571F1AC01F8011182CE0161
:1027B000C1969CA38BA3BE016F5F7F4F40970E9481
:1027C000FF11811122C089818823F1F08C8584FD5D
:1027D0001BC0CE0101960E94FD0FF801668F778F16
:1027E00080A391A38D8D9E8DAF8DB8A1828F938F85
:1027F000A48FB58F168A178A108E118E81E081837F
:1028000080E003C085E001C083E0EC960FB6F89449
:10281000DEBF0FBECDBFDF91CF911F910F91089505
:10282000CF93DF93E0912F02F0913002DC011496F8
:102830004D915D916D917C911797468F578F60A355
:1028400071A38D919D910D90BC91A02D828F938F3E
:10285000A48FB58F168A178A108E118E81E081831E
:1028600080E0DF91CF9108954F925F926F927F92B7
:102870008F929F92AF92BF92CF92DF92EF92FF9290
:102880000F931F93CF93DF934C016B015A01C091BB
:102890002F02D0913002FA0111821082209709F4A0
:1028A0009FC0898180FF9EC08A8D9B8DAC8DBD8D20
:1028B0004E895F89688D798D841B950BA60BB70BAC
:1028C000A60160E070E084179507A607B70708F433
:1028D0006C013401412C32E0532EC114D10409F4AF
:1028E0007DC08E899F89A88DB98DAC01BD015170C5
:1028F00066277727452B462B472BD1F5FA80FA948C
:10290000AC01BD0129E076956795579547952A95C5
:10291000D1F7F422C1F4892B8A2B8B2B29F46E8DED
:102920007F8D88A199A106C06AA17BA18CA19DA1E0
:102930000E946B106230710581059105A0F16AA3B8
:102940007BA38CA39DA36AA17BA18CA19DA10E94C6
:10295000D20F611571058105910529F1DC01CB01CB
:102960008F0D911DA11DB11D8EA39FA3A8A7B9A76F
:102970002E893F893170C201821B930B76018C1521
:102980009D0508F47C014EA15FA168A579A581147D
:10299000910411F0C30102C080E090E087010E9421
:1029A000B419882319F0198281E01DC08E899F898E
:1029B000A88DB98D8E0D9F1DA11DB11D8E8B9F8B76
:1029C000A88FB98F6E0C7F1CCE18DF08F5018081AF
:1029D0009181E80EF91EF182E0827FCF80E003C092
:1029E00085E001C084E0DF91CF911F910F91FF90AE
:1029F000EF90DF90CF90BF90AF909F908F907F909F
:102A00006F905F904F9008954F925F926F927F9278
:102A10008F929F92AF92BF92CF92DF92EF92FF92EE
:102A20000F931F93CF93DF936C018B015A01C091D9
:102A30002F02D0913002FA0111821082209709F4FE
:102A4000CFC0898180FFCEC08074672B79F4882342
:102A500049F040E050E0BA0180E090E00E94111A95
:102A6000811193C089818F7B8983B8C081110AC08D
:102A70008E899F89A88DB98D88279E7F8E8B9F8B8D
:102A8000A88FB98F8A8D9B8DAC8DBD8D4E895F8946
:102A9000688D798D841B950BA60BB70BA80160E0A0
:102AA00070E084179507A607B70708F48C01812CFE
:102AB00032E0932E45C0AB01BC014F0D511D611D8D
:102AC000711D4EA35FA368A779A780E090E00E94E4
:102AD000111A81115AC08981806489838E899F89E6
:102AE00091709401281B390B78012017310708F4E5
:102AF00079012701612C712CB301A201C6010E944A
:102B0000111A811142C08E899F89A88DB98D480EF6
:102B1000591E6A1E7B1E4E8A5F8A688E798ECE0C85
:102B2000DF1C0E191F09F50180819181E80EF91E45
:102B3000F182E0828E899F899170892B09F441C0CE
:102B40000115110509F44AC08E899F89A88DB98D98
:102B50009C013170232B11F6FA80FA94AC01BD016F
:102B600029E076956795579547952A95D1F7F422F0
:102B700079F06AA17BA18CA19DA10E94D20F611561
:102B800071058105910509F096CF198281E02BC06E
:102B9000892B8A2B8B2B29F46E8D7F8D88A199A18F
:102BA00006C06AA17BA18CA19DA10E946B1062301E
:102BB00071058105910548F36AA37BA38CA39DA3AE
:102BC000D8CF40E050E0BA0180E090E00E94111AB6
:102BD0008111DBCF89818F7B8983B2CF80E003C0F5
:102BE00085E001C084E0DF91CF911F910F91FF90AC
:102BF000EF90DF90CF90BF90AF909F908F907F909D
:102C00006F905F904F9008954F925F926F927F9276
:102C10008F929F92AF92BF92CF92DF92EF92FF92EC
:102C2000CF93DF9300D000D000D0CDB7DEB7209196
:102C30002F02309130023E832D832115310509F496
:102C4000EFC0D90111962C91119720FFEBC05A9635
:102C5000CD90DD90ED90FC905D976C157D058E0517
:102C60009F0510F46B017C01ED81FE814688578839
:102C7000608C718C168A178A108E118EC114D10443
:102C8000E104F10409F4D0C08280912CA12CB12C74
:102C900039E0880C991CAA1CBB1C3A95D1F7411449
:102CA00051046104710409F440C0B1E04B1A5108A9
:102CB00061087108C701B601615071098109910964
:102CC000A50194010E94362229833A834B835C83B9
:102CD000C301B201A50194010E94362289819A8123
:102CE000AB81BC8182179307A407B507F0F0882752
:102CF0009927DC0188199909AA09BB094822592298
:102D00006A227B22AD81BE8156964D925D926D9274
:102D10007C925997C418D508E608F70892966D91E9
:102D20007D918D919C91959733C0ED81FE81668D4B
:102D3000778D80A191A162A373A384A395A328C0DA
:102D40000E946B10623071058105910538F1ED81AB
:102D5000FE81468057806084718464157505860500
:102D60009705E0F4ED81FE8162A373A384A395A38C
:102D700046885788608C718C480C591C6A1C7B1CD7
:102D8000468A578A608E718EC818D908EA08FB08EF
:102D90008C149D04AE04BF0498F205C0AD81BE81C1
:102DA00011961C9218C0ED81FE8186889788A08CB0
:102DB000B18CC80CD91CEA1CFB1CC68AD78AE08ED1
:102DC000F18E0E94D20F611571058105910529F4DC
:102DD000ED81FE81118281E028C0AD81BE81129615
:102DE0002C9130E0215031094901330FAA08BB086A
:102DF00029E0F694E794D794C7942A95D1F7C82090
:102E0000D920EA20FB20DC01CB018C0D9D1DAE1DDD
:102E1000BF1DED81FE8186A397A3A0A7B1A704C023
:102E200085E003C084E001C080E026960FB6F894E8
:102E3000DEBF0FBECDBFDF91CF91FF90EF90DF904F
:102E4000CF90BF90AF909F908F907F906F905F904A
:102E50004F9008950F931F93CF93DF93CDB7DEB7B5
:102E6000AC970FB6F894DEBF0FBECDBF20912F02F6
:102E700030913002232BF9F0AB018C01CE01819609
:102E8000F80193838283BE016F5F7F4FC8010E9468
:102E9000FF11811117C08981882389F08C8584FFF7
:102EA0000CC0CE0101960E94FD0FF801648375836A
:102EB0008683978304C085E005C083E003C0C80112
:102EC0000E942210AC960FB6F894DEBF0FBECDBFA5
:102ED000DF91CF911F910F910895CF92DF92EF92E2
:102EE000FF920F931F93CF93DF93CDB7DEB7AC97CD
:102EF0000FB6F894DEBF0FBECDBF20912F023091E8
:102F00003002232B09F443C06B017C01CE01819672
:102F1000D70113969C938E93129783E0D7011C964A
:102F20004D915D916D917C911F9741155105610502
:102F3000710511F1F701208131812F70332785E070
:102F4000220F331F8A95E1F700E210E0CE010196CF
:102F50000E94B41981117DC089818823D1F0853EFA
:102F600029F08E3219F08C8583FF15C0C7010E94AD
:102F70004411882399F203C0882309F471C0F70132
:102F80001486158616861786833029F05FC085E083
:102F90006AC083E0F4CFF6013996D7011C964D91B3
:102FA0005D916D917C911F97452B462B472B09F422
:102FB00045C0BE016F5F7F4F86010F5E1F4FCB0183
:102FC000DB012D91BD01203269F0253009F425EE99
:102FD0003196AF0141505109DA012C93E017F10706
:102FE00079F701C08F0129852032A9F03EE2F8016E
:102FF0003083A8014E5F5F4F21832A85203231F054
:103000004F5F5F4F22832B85203211F48A0103C06A
:1030100023830C5F1F4F2C85F60120874D8D5E8D1D
:103020006F8D78A140835183628373830E94FD0F6B
:10303000F6016483758386839783F8011082C70144
:103040000E944411833079F480E00DC081110BC0DF
:1030500007C0F701148615861686178681E003C01F
:10306000F6013996EBCFAC960FB6F894DEBF0FBEE3
:10307000CDBFDF91CF911F910F91FF90EF90DF9027
:10308000CF90089587FF02C02B9A01C02B982D9AEC
:103090002D9886FF02C02B9A01C02B982D9A2D984F
:1030A00085FF02C02B9A01C02B982D9A2D9884FF82
:1030B00002C02B9A01C02B982D9A2D9883FF02C035
:1030C0002B9A01C02B982D9A2D9882FF02C02B9A23
:1030D00001C02B982D9A2D9881FF02C02B9A01C018
:1030E0002B982D9A2D9880FF02C02B9A01C02B9807
:1030F0002D9A2D9808952B9A83B12D9A2D9882950B
:103100008170880F1C998F5F2D9A2D98880F1C99BC
:103110008F5F2D9A2D98880F1C998F5F2D9A2D986F
:10312000880F1C998F5F2D9A2D98880F1C998F5F9F
:103130002D9A2D98880F1C998F5F2D9A2D98880FA6
:103140001C998F5F2D9A2D9808952B9A2D9A2D9862
:103150002D9A2D982D9A2D982D9A2D982D9A2D983F
:103160002D9A2D982D9A2D982D9A2D98019771F7BB
:1031700008952A9A0C947B18FF920F931F93CF9374
:10318000DF93C82FD42F152F062FF72E87FF09C0E6
:1031900040E050E0BA0187E70E94BC18823040F559
:1031A000CF772A9A0E947B182A980E947B188C2F2E
:1031B0000E9442188F2D0E944218802F0E944218B0
:1031C000812F0E9442188D2F0E944218C03421F096
:1031D000C83421F487E803C085E901C081E00E947A
:1031E0004218CAE00E947B1887FF02C0C150D1F785
:1031F000DF91CF911F910F91FF900895CF92DF92B1
:10320000EF92FF920F931F93CF93DF9300D000D0E4
:10321000CDB7DEB784B1817C8E6284B985B18B7104
:10322000846C85B92A9A8AE090E00E94A51840E053
:1032300050E0BA0180E40E94BC18813009F05CC003
:103240004AEA51E060E070E088E40E94BC188130F6
:1032500081F58E010F5F1F4F6E0185E0C80ED11CF6
:1032600078010E947B18F70181937F01EC15FD0521
:10327000C1F78B81813009F03FC08C818A3A09F017
:103280003BC098EEE92E93E0F92E40E050E060E07C
:1032900070E489EE0E94BC18882381F18FEC97E0DE
:1032A0000197F1F700C0000091E0E91AF10869F711
:1032B00023C040E050E0BA0189EE0E94BC18823081
:1032C00018F011E001E402C012E009EE88EEE82EE9
:1032D00083E0F82E40E050E0BA01802F0E94BC1835
:1032E000882359F18FEC97E00197F1F700C00000B7
:1032F00091E0E91AF10871F710E014C040E050E0E5
:10330000BA018AE70E94BC188111F6CF0E947B188F
:10331000F80181938F01CE16DF06C1F7898186FD02
:103320000AC014E0109333020E94B91881E01123FF
:1033300071F080E00CC01CE0F5CF40E052E060E0AE
:1033400070E080E50E94BC188111D6CFEBCF0F90C2
:103350000F900F900F90DF91CF911F910F91FF90E1
:10336000EF90DF90CF900895CF92DF92EF92FF928F
:103370000F931F93CF93DF937C01690180913302F8
:1033800083FD07C089E0440F551F661F771F8A958C
:10339000D1F781E50E94BC18882311F0C1E035C047
:1033A000C8EED3E087EC90E00197F1F700C0000091
:1033B0000E947B188F3F19F42197A1F7EFCF8E3F22
:1033C00069F7C2E0D2E0C01BD10BCC19DD09C114F2
:1033D000D10419F0C6010E94A518E114F10469F0A6
:1033E0000E947B18F70181937F0101501109C1F7F9
:1033F000CE010E94A518C0E008C00E947B180E9460
:10340000440F01501109C9F7F3CF0E94B9188C2F4E
:10341000DF91CF911F910F91FF90EF90DF90CF90B0
:103420000895EF92FF920F931F93CF93DF9300972E
:10343000D9F0EA018C01209709F465C0E0903102CF
:10344000F0903202E114F10409F45DC0F8018191B9
:103450008F010E944218F1E0EF1AF108F092320257
:10346000E09231022197E7CF4115510561057105C1
:10347000E9F08091330283FD07C089E0440F551FB6
:10348000661F771F8A95D1F788E50E94BC188111C5
:103490003CC08FEF0E9442188EEF0E94421880E0DD
:1034A00092E090933202809331022DC0C09131029C
:1034B000D0913202CE3F8FEFD80729F080E00E94F2
:1034C00042182197F7CF0E947B188F71853019F42D
:1034D00000E117E20DC0C1E013C001151105D9F3D9
:1034E000E7ECF0E03197F1F700C00000015011095E
:1034F0000E947B188F3F89F7C1E0012B09F0C0E0E3
:103500000E94B91803C0C0E001C0C1E08C2FDF9158
:10351000CF911F910F91FF90EF90089584B1816832
:1035200084B93D9A109239021092380210923B02EF
:1035300010923A0210923402109235021092360222
:10354000109237020895672B71F08130910539F0A0
:103550008230910531F0892B99F4459A0895289A83
:1035600008952F9A08958130910539F082309105A0
:1035700031F0892B29F445980895289808952F98BB
:1035800008954598459A0895CF93DF93EC012091D3
:1035900038023091390280913A0290913B0228170B
:1035A000390790F14AE352E060E072E08DE492E086
:1035B0000E943414882319F082E00E94AC0F80919D
:1035C0003A0290913B02892B19F482E00E94AC0FE1
:1035D00020913A0230913B02809134029091350261
:1035E000A0913602B0913702820F931FA11DB11D29
:1035F0008093340290933502A0933602B093370241
:10360000109239021092380280913802909139025A
:103610009C012F5F3F4F3093390220933802FC0109
:10362000E35BFD4F80818883DF91CF91089583B163
:1036300086FB882780F90895459828EE33E040E01E
:1036400050E00E9458222F3F9FEF39074907590742
:1036500059F08FEC97E00197F1F700C0000021507E
:10366000310941095109EFCF0895CF92DF92EF92CE
:10367000FF92FC014191519120E030E060E070E068
:10368000CB01241735075CF4CC24D62EE72EF82E78
:10369000A191C701B6016A2B2F5F3F4FF2CFFF9078
:1036A000EF90DF90CF90089521E030E0FC0131836E
:1036B000208342830895CF93DF93DC01ED91FC9149
:1036C0001197AE0FBF1FEB01CE0FDF1FE40FF51FE9
:1036D000E417F50791F011969C9111978981411596
:1036E000510519F021819223822311972197319757
:1036F000981771F380E090E002C081E090E0DF91E4
:10370000CF910895860F971FFC01828190E027E0FA
:1037100030E0241B350B02C0959587952A95E2F77A
:10372000817099270895E7E0F0E0E41BF50B41E094
:1037300050E001C0440FEA95EAF7FC01E60FF71FDD
:10374000842F809592819823232B09F0942B9283C8
:103750000895CF93DF93FB0120813181FC013183F8
:103760002083FB0120813181EB01C20FD31FDA01DD
:10377000A20FB31FFC01E20FF31F20E01197319756
:10378000C617D70799F012963C911297822F90E0B6
:10379000830F911D2981820F911D21E08F3F91059B
:1037A00009F008F420E082832197E8CFDF91CF91E0
:1037B00008950F931F93CF93DF93EC01699379934F
:1037C0008E01060F171FC017D10729F0CE010E94E6
:1037D000C41A2196F8CFDF91CF911F910F910895D0
:1037E00024E030E0FC013783268384E090E00895F4
:1037F00021E0FC01208380E090E00895FC016489D1
:10380000758981589F4F0E94D91B80E090E00895F0
:103810000B960E94C41A80E090E008950F931F93C6
:10382000CF93DF931F92CDB7DEB78C01CE01019607
:103830000E94C41A89818230A0F4F80191819331E9
:1038400041F4811102C081E002C08DE0F80181875E
:103850000EC0811102C081E001C086E0F8018287BC
:1038600006C085E090E0F8019783868302C080E07F
:1038700090E00F90DF91CF911F910F9108950F93DA
:103880001F93CF93DF931F92CDB7DEB78C01CE018C
:1038900001960E94C41A89818111F9CFF80117821B
:1038A000168280E090E00F90DF91CF911F910F91F1
:1038B00008950F931F93CF93DF93EC018C010A5E61
:1038C0001F4F64E070E0C8010E94D91BC8010E942C
:1038D000351B6C877D878E879F8780E090E0DF9126
:1038E000CF911F910F9108950F931F93CF93DF9363
:1038F000EC018C010A5E1F4F64E070E0C8010E9479
:10390000D91BC8010E94351B688B798B8A8B9B8BD6
:10391000695F7F4F8F4F9F4F28E030E040E050E0DD
:103920000E9458223D8B2C8B213231052CF086E0F1
:1039300090E09F838E8302C080E090E0DF91CF9182
:103940001F910F910895FC0110821182128213823F
:1039500014821582178216821386108681E0818771
:103960008287108A118A128A138A158A148A148609
:1039700015861686178680E090E008950895695FA1
:103980007F4F8F4F9F4F28E030E040E050E00E9493
:103990005822C9010895BC0181E090E00E94A31A59
:1039A00060E070E080E090E00E94A31A61E070E0C7
:1039B00080E090E00C94A31A4F925F926F927F92F6
:1039C0008F929F92AF92BF92CF92DF92EF92FF922F
:1039D0000F931F93CF93DF93EC01162F611117C044
:1039E00081E090E00E94CB1C05E010E060E070E018
:1039F00080E090E00E94A31A61E070E080E090E037
:103A00000E94A31A0150110989F71882A9C0888160
:103A1000681761F0673021F4863009F09DC017C047
:103A20006E30A9F48D3009F097C011C0663031F4C2
:103A300081E090E00E94CB1C87E008C06D3009F067
:103A40008FC081E090E00E94CB1C8EE08883E12C47
:103A5000F12C02E02FE0D22E3EE0932E4CE0C42E5B
:103A60005AE0852E68E0B62E77E0772EE5E0AE2EA0
:103A7000F3E06F2EA9E05A2E44244394E8811E17E8
:103A800009F470C08E2F90E08031910508F05FC07E
:103A9000FC01EC5CFF4F0C94772280E090E00E94E8
:103AA000CB1C4882EBCF193030F081E090E00E94CF
:103AB000CB1C5882E3CF80E090E00E94CB1C688250
:103AC000DDCF1430C1F181E090E00E94CB1CA882D0
:103AD000D5CF163049F42FC081E090E00E94CB1C76
:103AE0007882CCCF143039F181E090E00E94CB1C79
:103AF000B882C4CF80E090E00E94CB1C8882BECF09
:103B00001B30C9F081E090E00E94CB1CC882B6CF88
:103B10001D3049F410C081E090E00E94CB1C9882D7
:103B2000ADCF1B3041F081E090E00E94CB1CD882E9
:103B3000A5CF113031F480E090E00E94CB1C1883B7
:103B40009DCF81E090E00E94CB1C088397CF188323
:103B500095E0E92EF12C92CF85E0E82EF12C02C001
:103B6000E12CF12CC701DF91CF911F910F91FF90B4
:103B7000EF90DF90CF90BF90AF909F908F907F900D
:103B80006F905F904F9008950F931F93CF93DF93A3
:103B90001F92CDB7DEB78C01CE0101960E94C41AE8
:103BA0006981C80108960E94DC1C009719F0F80191
:103BB000978386830F90DF91CF911F910F91089586
:103BC0008F929F92AF92BF92EF92FF920F931F93AB
:103BD000CF93DF93EC018C010A5E1F4F61E070E030
:103BE000C8010E94D91BE88C61E070E0C8010E9406
:103BF000D91BF88C64E070E0C8010E94D91BC80191
:103C00000E94351B4B015C018885E81629F06E2D5A
:103C1000CE0108960E94DC1CC501B4010E941C1B49
:103C20008885F81629F06F2DCE0108960E94DC1CBD
:103C300080E090E0DF91CF911F910F91FF90EF9086
:103C4000BF90AF909F908F9008956F927F928F92C8
:103C50009F92AF92BF92CF92DF92EF92FF920F931B
:103C60001F93CF93DF934B015C01FA0121153105BE
:103C700051F080819181E90189939993208131816B
:103C8000C20FD31F02C0C0E0D0E07F0182E0E80E87
:103C9000F11C80819181E80EF91E81149104A10428
:103CA000B10409F448C0F70162907F01C12CD12C06
:103CB000712CF1E08F1A9108A108B10801151105C6
:103CC00059F081149104A104B10431F461E070E071
:103CD00081E090E00E94A31A662D617070E082E09E
:103CE00090E00E94A31A669460E070E080E090E0AB
:103CF0000E94A31A209741F00E94171B0C2C01C0B0
:103D0000880F0A94EAF7782A61E070E080E090E09A
:103D10000E94A31A8FEFC81AD80A81149104A10433
:103D2000B10421F0E8E0CE16D10419F6209709F489
:103D3000B4CF7A92B2CFDF91CF911F910F91FF90C4
:103D4000EF90DF90CF90BF90AF909F908F907F903B
:103D50006F9008952F923F924F925F926F927F9251
:103D60008F929F92AF92BF92CF92DF92EF92FF928B
:103D70000F931F93CF93DF93CDB7DEB72A970FB67C
:103D8000F894DEBF0FBECDBF3C01962E19012A016B
:103D900018870F83FC82EB82DE82CD82BA86A986E9
:103DA000CF8CD8A0E9A0FAA0BBA0232B242B252BD5
:103DB00071F4C114D104E104F10409F475C061E0A7
:103DC0000E94DC1CC701B6010E941C1B6DC0A12C07
:103DD0001A821982692DC3010E94DC1C01E010E0E7
:103DE000981002C000E010E02B813C814F81588583
:103DF000C201B1010E94251E8D819E81009769F04C
:103E000049855A856B817C810E945B1B31E020E0F3
:103E1000892B09F030E039832A839814D9F1F30112
:103E200080818F5F808389819A81892B11F1C114F0
:103E3000D104E104F104E9F0AB14D8F466E0C30165
:103E40000E94DC1C64E0C3010E94DC1CD701C60197
:103E500022E0B595A795979587952A95D1F7C80E35
:103E6000D91EEA1EFB1EC114D104E104F104B1F015
:103E700009C0682DC3010E94DC1CC114D104E104F7
:103E8000F10441F061E0C3010E94DC1CC701B601EE
:103E90000E941C1BE981FA81EF2B31F081E08A0D31
:103EA000AB1428F4A82E96CF80E090E009C0BB2088
:103EB00029F0B81618F483E090E002C082E090E0A8
:103EC0002A960FB6F894DEBF0FBECDBFDF91CF911B
:103ED0001F910F91FF90EF90DF90CF90BF90AF9028
:103EE0009F908F907F906F905F904F903F902F901A
:103EF00008956F927F928F92AF92BF92CF92DF928E
:103F0000EF92FF920F931F93CF93DF931F92CDB742
:103F1000DEB73C01CE0101960E94C41A83010A5EFD
:103F20001F4F6981862F90E0A0E0B0E00796A11DA9
:103F3000B11DBC01CD0123E09595879577956795D7
:103F40002A95D1F7C8010E94D91B298130E040E0B1
:103F500050E01F92F30187858F9386858F93858527
:103F60008F9384858F938184A12CB12CC12CD12C6B
:103F7000E12CF12C6BE0C30108960E94AA1E0F9061
:103F80000F900F900F900F90009719F0F301978307
:103F900086830F90DF91CF911F910F91FF90EF904B
:103FA000DF90CF90BF90AF908F907F906F900895EB
:103FB0004F925F926F927F928F92AF92BF92CF9209
:103FC000DF92EF92FF920F931F93CF93DF93EC0159
:103FD0008C010A5E1F4F62E070E0C8010E94D91B8D
:103FE000C8010E94351B2B013C01695F7F4F8F4F39
:103FF0009F4F28E030E040E050E00E9458222132FC
:1040000031051CF5B901C8010E94D91B1F928F858B
:104010008F938E858F938D858F938C858F938984D5
:10402000A12CB12CC12CD12CE12CF12CA30192019B
:104030006BE0CE0108960E94AA1E0F900F900F9081
:104040000F900F90009729F002C086E090E09F83C8
:104050008E83DF91CF911F910F91FF90EF90DF90B2
:10406000CF90BF90AF908F907F906F905F904F9068
:1040700008958F92AF92BF92CF92DF92EF92FF920C
:104080000F931F93CF93DF93EC018C010A5E1F4FB8
:104090006C897D89C8010E94D91B5E018FE7A80E3B
:1040A000B11C6E0189E3C80ED11C7E018CE5E80EBF
:1040B000F11C288939894A895B898B858F938F8583
:1040C0008F938E858F938D858F938C858F938A8424
:1040D00064E0CE0108960E94AA1E0F900F900F90E8
:1040E0000F900F90009711F09F838E83DF91CF91F7
:1040F0001F910F91FF90EF90DF90CF90BF90AF9006
:104100008F9008952F923F924F925F926F927F927D
:104110008F929F92AF92BF92CF92DF92EF92FF92D7
:104120000F931F93CF93DF9300D000D01F92CDB792
:10413000DEB79A8389832A013B0119018A8D8B831B
:104140008B8D8C838C8D8D839D8CB901C8010E94D1
:10415000D91BC114D10421F0B101C6010E94D91BA1
:104160008E8D8F939F928D818F938C818F938B8176
:104170008F93A301920164E089819A810E94AA1E13
:104180000F900F900F900F900F900F900F900F9037
:104190000F900F90DF91CF911F910F91FF90EF90B3
:1041A000DF90CF90BF90AF909F908F907F906F9057
:1041B0005F904F903F902F9008958F92AF92BF9253
:1041C000CF92DF92EF92FF920F931F93CF93DF93E3
:1041D000EC015C018FE7A80EB11C6E0189E3C80EEB
:1041E000D11C7E018CE5E80EF11C8E010A5E1F4F8A
:1041F0002C893D89488959896A897B898B858F9368
:104200008F858F938E858F938D858F938C858F93DC
:104210008A84CE0108960E9482200F900F900F9002
:104220000F900F90009711F09F838E83DF91CF91B5
:104230001F910F91FF90EF90DF90CF90BF90AF90C4
:104240008F9008958F92AF92BF92CF92DF92EF92AC
:10425000FF920F931F93CF93DF93EC0189818E30F0
:1042600011F48A8402C084E0882E2C893D89488913
:1042700059896A897B891F921F921F921F921F92F0
:10428000A12CB12CC12CD12CE12CF12C8E010A5E79
:104290001F4FCE0108960E9482200F900F900F9022
:1042A0000F900F90009711F09F838E83DF91CF9135
:1042B0001F910F91FF90EF90DF90CF90BF90AF9044
:1042C0008F9008958F92AF92BF92CF92DF92EF922C
:1042D000FF920F931F93CF93DF93EC01898181317C
:1042E00011F48A8402C084E0882E2C893D89488993
:1042F00059896A897B891F921F921F921F921F9270
:10430000A12CB12C6E0189E3C80ED11C7E018CE575
:10431000E80EF11C8E010A5E1F4FCE0108960E9426
:1043200082200F900F900F900F900F90009711F038
:104330009F838E83DF91CF911F910F91FF90EF901C
:10434000DF90CF90BF90AF908F900895CF93DF9381
:10435000EC010E94A31C9F838E83892B39F460E0BB
:10436000CE0108960E94DC1C9F838E838E819F81E4
:10437000DF91CF910895CF93DF93EC018E819F81E0
:10438000892B21F58881811121C0CE0101960E94DF
:10439000C41A8A819B81AC81BD810196A11DB11D8A
:1043A0008A839B83AC83BD83E981E83158F4F0E0D4
:1043B000EE0FFF1FE75FFE4F0190F081E02DCE0171
:1043C000099504C084E090E09F838E838E819F8155
:1043D000DF91CF9108950895CF93DF93CDB7DEB7E6
:1043E000C25AD1090FB6F894DEBF0FBECDBFCE01C1
:1043F00001960E94A6218F819885009741F429811A
:10440000211105C0CE0101960E94BB21F4CFCE55EB
:10441000DF4F0FB6F894DEBF0FBECDBFDF91CF9157
:1044200008950E943D0AC0E081E0811107C080E04C
:104430000E94D80CC82F811106C013C00E94530AD5
:104440008823A9F30EC0823019F40E94120EEDCF1A
:104450000E94F20CEACF0E942F0D81E00E94D80C3E
:10446000C82FC330C1F70E940F0FF7CFA1E21A2E59
:10447000AA1BBB1BFD010DC0AA1FBB1FEE1FFF1F08
:10448000A217B307E407F50720F0A21BB30BE40B58
:10449000F50B661F771F881F991F1A9469F760959F
:1044A0007095809590959B01AC01BD01CF01089559
:1044B000052E97FB1EF400940E946F2257FD07D033
:1044C0000E94362207FC03D04EF40C946F225095C4
:1044D0004095309521953F4F4F4F5F4F08959095F0
:1044E0008095709561957F4F8F4F9F4F0895EE0F88
:1044F000FF1F0590F491E02D09940E948822A59F4A
:10450000900DB49F900DA49F800D911D11240895CE
:10451000A29FB001B39FC001A39F700D811D112404
:10452000911DB29F700D811D1124911D0895F89465
:02453000FFCFBB
:10453200994F4B464739399900F81BFE1B791F39B1
:1045420020591CF01BF01B081C741CDD20F01BF012
:104552001B222122212221622162216221C41D0EFD
:104562001C0E1CD81F3F1CE01D0102032E2E0055FD
:1045720050444154452E504C440042494E00545838
:024582005400E3
:00000001FF
